{
  "address": "0xDCA4EF74a67d7456e068704Bf4eE6D0c7A192f39",
  "abi": [
    {
      "anonymous": false,
      "inputs": [
        {
          "indexed": true,
          "internalType": "address",
          "name": "owner",
          "type": "address"
        },
        {
          "indexed": true,
          "internalType": "address",
          "name": "approved",
          "type": "address"
        },
        {
          "indexed": true,
          "internalType": "uint256",
          "name": "tokenId",
          "type": "uint256"
        }
      ],
      "name": "Approval",
      "type": "event"
    },
    {
      "anonymous": false,
      "inputs": [
        {
          "indexed": true,
          "internalType": "address",
          "name": "owner",
          "type": "address"
        },
        {
          "indexed": true,
          "internalType": "address",
          "name": "operator",
          "type": "address"
        },
        {
          "indexed": false,
          "internalType": "bool",
          "name": "approved",
          "type": "bool"
        }
      ],
      "name": "ApprovalForAll",
      "type": "event"
    },
    {
      "anonymous": false,
      "inputs": [
        {
          "indexed": false,
          "internalType": "uint8",
          "name": "version",
          "type": "uint8"
        }
      ],
      "name": "Initialized",
      "type": "event"
    },
    {
      "anonymous": false,
      "inputs": [
        {
          "indexed": true,
          "internalType": "address",
          "name": "from",
          "type": "address"
        },
        {
          "indexed": true,
          "internalType": "address",
          "name": "to",
          "type": "address"
        },
        {
          "indexed": true,
          "internalType": "uint256",
          "name": "tokenId",
          "type": "uint256"
        }
      ],
      "name": "Transfer",
      "type": "event"
    },
    {
      "anonymous": false,
      "inputs": [
        {
          "indexed": true,
          "internalType": "address",
          "name": "by",
          "type": "address"
        },
        {
          "indexed": false,
          "internalType": "uint256",
          "name": "_tokenId",
          "type": "uint256"
        }
      ],
      "name": "Unwrapped",
      "type": "event"
    },
    {
      "anonymous": false,
      "inputs": [
        {
          "indexed": true,
          "internalType": "address",
          "name": "by",
          "type": "address"
        },
        {
          "indexed": false,
          "internalType": "uint256",
          "name": "_tokenId",
          "type": "uint256"
        }
      ],
      "name": "Wrapped",
      "type": "event"
    },
    {
      "inputs": [
        {
          "internalType": "address",
          "name": "to",
          "type": "address"
        },
        {
          "internalType": "uint256",
          "name": "tokenId",
          "type": "uint256"
        }
      ],
      "name": "approve",
      "outputs": [],
      "stateMutability": "nonpayable",
      "type": "function"
    },
    {
      "inputs": [
        {
          "internalType": "address",
          "name": "owner",
          "type": "address"
        }
      ],
      "name": "balanceOf",
      "outputs": [
        {
          "internalType": "uint256",
          "name": "",
          "type": "uint256"
        }
      ],
      "stateMutability": "view",
      "type": "function"
    },
    {
      "inputs": [],
      "name": "ceruleanNFT",
      "outputs": [
        {
          "internalType": "address",
          "name": "",
          "type": "address"
        }
      ],
      "stateMutability": "view",
      "type": "function"
    },
    {
      "inputs": [
        {
          "internalType": "uint256",
          "name": "tokenId",
          "type": "uint256"
        }
      ],
      "name": "getApproved",
      "outputs": [
        {
          "internalType": "address",
          "name": "",
          "type": "address"
        }
      ],
      "stateMutability": "view",
      "type": "function"
    },
    {
      "inputs": [
        {
          "internalType": "string",
          "name": "_name",
          "type": "string"
        },
        {
          "internalType": "string",
          "name": "_symbol",
          "type": "string"
        },
        {
          "internalType": "address",
          "name": "_ceruleanNFT",
          "type": "address"
        }
      ],
      "name": "initialize",
      "outputs": [],
      "stateMutability": "nonpayable",
      "type": "function"
    },
    {
      "inputs": [
        {
          "internalType": "address",
          "name": "owner",
          "type": "address"
        },
        {
          "internalType": "address",
          "name": "operator",
          "type": "address"
        }
      ],
      "name": "isApprovedForAll",
      "outputs": [
        {
          "internalType": "bool",
          "name": "",
          "type": "bool"
        }
      ],
      "stateMutability": "view",
      "type": "function"
    },
    {
      "inputs": [],
      "name": "name",
      "outputs": [
        {
          "internalType": "string",
          "name": "",
          "type": "string"
        }
      ],
      "stateMutability": "view",
      "type": "function"
    },
    {
      "inputs": [
        {
          "internalType": "address",
          "name": "",
          "type": "address"
        },
        {
          "internalType": "address",
          "name": "",
          "type": "address"
        },
        {
          "internalType": "uint256",
          "name": "",
          "type": "uint256"
        },
        {
          "internalType": "bytes",
          "name": "",
          "type": "bytes"
        }
      ],
      "name": "onERC721Received",
      "outputs": [
        {
          "internalType": "bytes4",
          "name": "",
          "type": "bytes4"
        }
      ],
      "stateMutability": "nonpayable",
      "type": "function"
    },
    {
      "inputs": [
        {
          "internalType": "uint256",
          "name": "tokenId",
          "type": "uint256"
        }
      ],
      "name": "ownerOf",
      "outputs": [
        {
          "internalType": "address",
          "name": "",
          "type": "address"
        }
      ],
      "stateMutability": "view",
      "type": "function"
    },
    {
      "inputs": [
        {
          "internalType": "address",
          "name": "from",
          "type": "address"
        },
        {
          "internalType": "address",
          "name": "to",
          "type": "address"
        },
        {
          "internalType": "uint256",
          "name": "tokenId",
          "type": "uint256"
        }
      ],
      "name": "safeTransferFrom",
      "outputs": [],
      "stateMutability": "nonpayable",
      "type": "function"
    },
    {
      "inputs": [
        {
          "internalType": "address",
          "name": "from",
          "type": "address"
        },
        {
          "internalType": "address",
          "name": "to",
          "type": "address"
        },
        {
          "internalType": "uint256",
          "name": "tokenId",
          "type": "uint256"
        },
        {
          "internalType": "bytes",
          "name": "_data",
          "type": "bytes"
        }
      ],
      "name": "safeTransferFrom",
      "outputs": [],
      "stateMutability": "nonpayable",
      "type": "function"
    },
    {
      "inputs": [
        {
          "internalType": "address",
          "name": "operator",
          "type": "address"
        },
        {
          "internalType": "bool",
          "name": "approved",
          "type": "bool"
        }
      ],
      "name": "setApprovalForAll",
      "outputs": [],
      "stateMutability": "nonpayable",
      "type": "function"
    },
    {
      "inputs": [
        {
          "internalType": "bytes4",
          "name": "interfaceId",
          "type": "bytes4"
        }
      ],
      "name": "supportsInterface",
      "outputs": [
        {
          "internalType": "bool",
          "name": "",
          "type": "bool"
        }
      ],
      "stateMutability": "view",
      "type": "function"
    },
    {
      "inputs": [],
      "name": "symbol",
      "outputs": [
        {
          "internalType": "string",
          "name": "",
          "type": "string"
        }
      ],
      "stateMutability": "view",
      "type": "function"
    },
    {
      "inputs": [
        {
          "internalType": "uint256",
          "name": "tokenId",
          "type": "uint256"
        }
      ],
      "name": "tokenURI",
      "outputs": [
        {
          "internalType": "string",
          "name": "",
          "type": "string"
        }
      ],
      "stateMutability": "view",
      "type": "function"
    },
    {
      "inputs": [
        {
          "internalType": "address",
          "name": "from",
          "type": "address"
        },
        {
          "internalType": "address",
          "name": "to",
          "type": "address"
        },
        {
          "internalType": "uint256",
          "name": "tokenId",
          "type": "uint256"
        }
      ],
      "name": "transferFrom",
      "outputs": [],
      "stateMutability": "nonpayable",
      "type": "function"
    },
    {
      "inputs": [
        {
          "internalType": "uint256",
          "name": "_tokenId",
          "type": "uint256"
        }
      ],
      "name": "unwrap",
      "outputs": [],
      "stateMutability": "nonpayable",
      "type": "function"
    },
    {
      "inputs": [
        {
          "internalType": "uint256",
          "name": "_tokenId",
          "type": "uint256"
        }
      ],
      "name": "wrap",
      "outputs": [],
      "stateMutability": "nonpayable",
      "type": "function"
    }
  ],
  "transactionHash": "0xb2b3878d4bc749b3bba4ba1e0c54e08cc81bf93fe85a1d84c99a130a4a31cb20",
  "args": [],
  "numDeployments": 5,
  "solcInputHash": "ab05659e6c782b94f54a93959cdb9d72",
  "bytecode": "0x608060405234801561001057600080fd5b506135e3806100206000396000f3fe608060405234801561001057600080fd5b50600436106101165760003560e01c80636352211e116100a2578063b88d4fde11610071578063b88d4fde146102f1578063c87b56dd1461030d578063de0e9a3e1461033d578063e985e9c514610359578063ea598cb01461038957610116565b80636352211e1461025757806370a082311461028757806395d89b41146102b7578063a22cb465146102d557610116565b8063095ea7b3116100e9578063095ea7b3146101b5578063150b7a02146101d157806323b872dd1461020157806342842e0e1461021d578063516ebde51461023957610116565b806301ffc9a71461011b57806306fdde031461014b578063077f224a14610169578063081812fc14610185575b600080fd5b610135600480360381019061013091906120c4565b6103a5565b604051610142919061210c565b60405180910390f35b610153610487565b60405161016091906121c0565b60405180910390f35b610183600480360381019061017e9190612375565b610519565b005b61019f600480360381019061019a9190612436565b610603565b6040516101ac9190612472565b60405180910390f35b6101cf60048036038101906101ca919061248d565b610688565b005b6101eb60048036038101906101e6919061256e565b61079f565b6040516101f89190612600565b60405180910390f35b61021b6004803603810190610216919061261b565b6107b3565b005b6102376004803603810190610232919061261b565b610813565b005b610241610833565b60405161024e9190612472565b60405180910390f35b610271600480360381019061026c9190612436565b610859565b60405161027e9190612472565b60405180910390f35b6102a1600480360381019061029c919061266e565b61090a565b6040516102ae91906126aa565b60405180910390f35b6102bf6109c1565b6040516102cc91906121c0565b60405180910390f35b6102ef60048036038101906102ea91906126f1565b610a53565b005b61030b6004803603810190610306919061256e565b610a69565b005b61032760048036038101906103229190612436565b610acb565b60405161033491906121c0565b60405180910390f35b61035760048036038101906103529190612436565b610b72565b005b610373600480360381019061036e9190612731565b610d2e565b604051610380919061210c565b60405180910390f35b6103a3600480360381019061039e9190612436565b610dc2565b005b60007f80ac58cd000000000000000000000000000000000000000000000000000000007bffffffffffffffffffffffffffffffffffffffffffffffffffffffff1916827bffffffffffffffffffffffffffffffffffffffffffffffffffffffff1916148061047057507f5b5e139f000000000000000000000000000000000000000000000000000000007bffffffffffffffffffffffffffffffffffffffffffffffffffffffff1916827bffffffffffffffffffffffffffffffffffffffffffffffffffffffff1916145b80610480575061047f82611022565b5b9050919050565b606060658054610496906127a0565b80601f01602080910402602001604051908101604052809291908181526020018280546104c2906127a0565b801561050f5780601f106104e45761010080835404028352916020019161050f565b820191906000526020600020905b8154815290600101906020018083116104f257829003601f168201915b5050505050905090565b6000610525600161108c565b90508015610549576001600060016101000a81548160ff0219169083151502179055505b610553848461117c565b61055b6111fd565b61056361124e565b8160fb60006101000a81548173ffffffffffffffffffffffffffffffffffffffff021916908373ffffffffffffffffffffffffffffffffffffffff16021790555080156105fd5760008060016101000a81548160ff0219169083151502179055507f7f26b83ff96e1f2b6a682f133852f6798a09c465da95921460cefb384740249860016040516105f49190612823565b60405180910390a15b50505050565b600061060e826112a7565b61064d576040517f08c379a0000000000000000000000000000000000000000000000000000000008152600401610644906128b0565b60405180910390fd5b6069600083815260200190815260200160002060009054906101000a900473ffffffffffffffffffffffffffffffffffffffff169050919050565b600061069382610859565b90508073ffffffffffffffffffffffffffffffffffffffff168373ffffffffffffffffffffffffffffffffffffffff1603610703576040517f08c379a00000000000000000000000000000000000000000000000000000000081526004016106fa90612942565b60405180910390fd5b8073ffffffffffffffffffffffffffffffffffffffff16610722611313565b73ffffffffffffffffffffffffffffffffffffffff16148061075157506107508161074b611313565b610d2e565b5b610790576040517f08c379a0000000000000000000000000000000000000000000000000000000008152600401610787906129d4565b60405180910390fd5b61079a838361131b565b505050565b600063150b7a0260e01b9050949350505050565b6107c46107be611313565b826113d4565b610803576040517f08c379a00000000000000000000000000000000000000000000000000000000081526004016107fa90612a66565b60405180910390fd5b61080e8383836114b2565b505050565b61082e83838360405180602001604052806000815250610a69565b505050565b60fb60009054906101000a900473ffffffffffffffffffffffffffffffffffffffff1681565b6000806067600084815260200190815260200160002060009054906101000a900473ffffffffffffffffffffffffffffffffffffffff169050600073ffffffffffffffffffffffffffffffffffffffff168173ffffffffffffffffffffffffffffffffffffffff1603610901576040517f08c379a00000000000000000000000000000000000000000000000000000000081526004016108f890612af8565b60405180910390fd5b80915050919050565b60008073ffffffffffffffffffffffffffffffffffffffff168273ffffffffffffffffffffffffffffffffffffffff160361097a576040517f08c379a000000000000000000000000000000000000000000000000000000000815260040161097190612b8a565b60405180910390fd5b606860008373ffffffffffffffffffffffffffffffffffffffff1673ffffffffffffffffffffffffffffffffffffffff168152602001908152602001600020549050919050565b6060606680546109d0906127a0565b80601f01602080910402602001604051908101604052809291908181526020018280546109fc906127a0565b8015610a495780601f10610a1e57610100808354040283529160200191610a49565b820191906000526020600020905b815481529060010190602001808311610a2c57829003601f168201915b5050505050905090565b610a65610a5e611313565b8383611718565b5050565b610a7a610a74611313565b836113d4565b610ab9576040517f08c379a0000000000000000000000000000000000000000000000000000000008152600401610ab090612a66565b60405180910390fd5b610ac584848484611884565b50505050565b6060610ad6826112a7565b610b15576040517f08c379a0000000000000000000000000000000000000000000000000000000008152600401610b0c90612c1c565b60405180910390fd5b6000610b1f6118e0565b90506000815111610b3f5760405180602001604052806000815250610b6a565b80610b49846118f7565b604051602001610b5a929190612c78565b6040516020818303038152906040525b915050919050565b600260c95403610bb7576040517f08c379a0000000000000000000000000000000000000000000000000000000008152600401610bae90612ce8565b60405180910390fd5b600260c9819055506000610bca82610859565b90508073ffffffffffffffffffffffffffffffffffffffff163373ffffffffffffffffffffffffffffffffffffffff1614610c3a576040517f08c379a0000000000000000000000000000000000000000000000000000000008152600401610c3190612d54565b60405180910390fd5b610c4382611a57565b60fb60009054906101000a900473ffffffffffffffffffffffffffffffffffffffff1673ffffffffffffffffffffffffffffffffffffffff166342842e0e3083856040518463ffffffff1660e01b8152600401610ca293929190612d74565b600060405180830381600087803b158015610cbc57600080fd5b505af1158015610cd0573d6000803e3d6000fd5b505050508073ffffffffffffffffffffffffffffffffffffffff167f95ae649bfaaef9def56a52f4fb2d9e8fa5496bb7082930e442c74cc76b03dcb383604051610d1a91906126aa565b60405180910390a250600160c98190555050565b6000606a60008473ffffffffffffffffffffffffffffffffffffffff1673ffffffffffffffffffffffffffffffffffffffff16815260200190815260200160002060008373ffffffffffffffffffffffffffffffffffffffff1673ffffffffffffffffffffffffffffffffffffffff16815260200190815260200160002060009054906101000a900460ff16905092915050565b600260c95403610e07576040517f08c379a0000000000000000000000000000000000000000000000000000000008152600401610dfe90612ce8565b60405180910390fd5b600260c981905550600060fb60009054906101000a900473ffffffffffffffffffffffffffffffffffffffff1673ffffffffffffffffffffffffffffffffffffffff16636352211e836040518263ffffffff1660e01b8152600401610e6c91906126aa565b602060405180830381865afa158015610e89573d6000803e3d6000fd5b505050506040513d601f19601f82011682018060405250810190610ead9190612dc0565b90508073ffffffffffffffffffffffffffffffffffffffff163373ffffffffffffffffffffffffffffffffffffffff1614610f1d576040517f08c379a0000000000000000000000000000000000000000000000000000000008152600401610f1490612e39565b60405180910390fd5b60fb60009054906101000a900473ffffffffffffffffffffffffffffffffffffffff1673ffffffffffffffffffffffffffffffffffffffff166342842e0e8230856040518463ffffffff1660e01b8152600401610f7c93929190612d74565b600060405180830381600087803b158015610f9657600080fd5b505af1158015610faa573d6000803e3d6000fd5b50505050610fc8818360405180602001604052806000815250611b74565b8073ffffffffffffffffffffffffffffffffffffffff167f4700c1726b4198077cd40320a32c45265a1910521eb0ef713dd1d8412413d7fc8360405161100e91906126aa565b60405180910390a250600160c98190555050565b60007f01ffc9a7000000000000000000000000000000000000000000000000000000007bffffffffffffffffffffffffffffffffffffffffffffffffffffffff1916827bffffffffffffffffffffffffffffffffffffffffffffffffffffffff1916149050919050565b60008060019054906101000a900460ff16156111035760018260ff161480156110bb57506110b930611bcf565b155b6110fa576040517f08c379a00000000000000000000000000000000000000000000000000000000081526004016110f190612ecb565b60405180910390fd5b60009050611177565b8160ff1660008054906101000a900460ff1660ff1610611158576040517f08c379a000000000000000000000000000000000000000000000000000000000815260040161114f90612ecb565b60405180910390fd5b816000806101000a81548160ff021916908360ff160217905550600190505b919050565b600060019054906101000a900460ff166111cb576040517f08c379a00000000000000000000000000000000000000000000000000000000081526004016111c290612f5d565b60405180910390fd5b81606590805190602001906111e1929190611fb5565b5080606690805190602001906111f8929190611fb5565b505050565b600060019054906101000a900460ff1661124c576040517f08c379a000000000000000000000000000000000000000000000000000000000815260040161124390612f5d565b60405180910390fd5b565b600060019054906101000a900460ff1661129d576040517f08c379a000000000000000000000000000000000000000000000000000000000815260040161129490612f5d565b60405180910390fd5b6112a5611bf2565b565b60008073ffffffffffffffffffffffffffffffffffffffff166067600084815260200190815260200160002060009054906101000a900473ffffffffffffffffffffffffffffffffffffffff1673ffffffffffffffffffffffffffffffffffffffff1614159050919050565b600033905090565b816069600083815260200190815260200160002060006101000a81548173ffffffffffffffffffffffffffffffffffffffff021916908373ffffffffffffffffffffffffffffffffffffffff160217905550808273ffffffffffffffffffffffffffffffffffffffff1661138e83610859565b73ffffffffffffffffffffffffffffffffffffffff167f8c5be1e5ebec7d5bd14f71427d1e84f3dd0314c0f7b2291e5b200ac8c7c3b92560405160405180910390a45050565b60006113df826112a7565b61141e576040517f08c379a000000000000000000000000000000000000000000000000000000000815260040161141590612fef565b60405180910390fd5b600061142983610859565b90508073ffffffffffffffffffffffffffffffffffffffff168473ffffffffffffffffffffffffffffffffffffffff16148061146b575061146a8185610d2e565b5b806114a957508373ffffffffffffffffffffffffffffffffffffffff1661149184610603565b73ffffffffffffffffffffffffffffffffffffffff16145b91505092915050565b8273ffffffffffffffffffffffffffffffffffffffff166114d282610859565b73ffffffffffffffffffffffffffffffffffffffff1614611528576040517f08c379a000000000000000000000000000000000000000000000000000000000815260040161151f90613081565b60405180910390fd5b600073ffffffffffffffffffffffffffffffffffffffff168273ffffffffffffffffffffffffffffffffffffffff1603611597576040517f08c379a000000000000000000000000000000000000000000000000000000000815260040161158e90613113565b60405180910390fd5b6115a2838383611c4b565b6115ad60008261131b565b6001606860008573ffffffffffffffffffffffffffffffffffffffff1673ffffffffffffffffffffffffffffffffffffffff16815260200190815260200160002060008282546115fd9190613162565b925050819055506001606860008473ffffffffffffffffffffffffffffffffffffffff1673ffffffffffffffffffffffffffffffffffffffff16815260200190815260200160002060008282546116549190613196565b92505081905550816067600083815260200190815260200160002060006101000a81548173ffffffffffffffffffffffffffffffffffffffff021916908373ffffffffffffffffffffffffffffffffffffffff160217905550808273ffffffffffffffffffffffffffffffffffffffff168473ffffffffffffffffffffffffffffffffffffffff167fddf252ad1be2c89b69c2b068fc378daa952ba7f163c4a11628f55a4df523b3ef60405160405180910390a4611713838383611c50565b505050565b8173ffffffffffffffffffffffffffffffffffffffff168373ffffffffffffffffffffffffffffffffffffffff1603611786576040517f08c379a000000000000000000000000000000000000000000000000000000000815260040161177d90613238565b60405180910390fd5b80606a60008573ffffffffffffffffffffffffffffffffffffffff1673ffffffffffffffffffffffffffffffffffffffff16815260200190815260200160002060008473ffffffffffffffffffffffffffffffffffffffff1673ffffffffffffffffffffffffffffffffffffffff16815260200190815260200160002060006101000a81548160ff0219169083151502179055508173ffffffffffffffffffffffffffffffffffffffff168373ffffffffffffffffffffffffffffffffffffffff167f17307eab39ab6107e8899845ad3d59bd9653f200f220920489ca2b5937696c3183604051611877919061210c565b60405180910390a3505050565b61188f8484846114b2565b61189b84848484611c55565b6118da576040517f08c379a00000000000000000000000000000000000000000000000000000000081526004016118d1906132ca565b60405180910390fd5b50505050565b606060405180602001604052806000815250905090565b60606000820361193e576040518060400160405280600181526020017f30000000000000000000000000000000000000000000000000000000000000008152509050611a52565b600082905060005b60008214611970578080611959906132ea565b915050600a826119699190613361565b9150611946565b60008167ffffffffffffffff81111561198c5761198b6121ec565b5b6040519080825280601f01601f1916602001820160405280156119be5781602001600182028036833780820191505090505b5090505b60008514611a4b576001826119d79190613162565b9150600a856119e69190613392565b60306119f29190613196565b60f81b818381518110611a0857611a076133c3565b5b60200101907effffffffffffffffffffffffffffffffffffffffffffffffffffffffffffff1916908160001a905350600a85611a449190613361565b94506119c2565b8093505050505b919050565b6000611a6282610859565b9050611a7081600084611c4b565b611a7b60008361131b565b6001606860008373ffffffffffffffffffffffffffffffffffffffff1673ffffffffffffffffffffffffffffffffffffffff1681526020019081526020016000206000828254611acb9190613162565b925050819055506067600083815260200190815260200160002060006101000a81549073ffffffffffffffffffffffffffffffffffffffff021916905581600073ffffffffffffffffffffffffffffffffffffffff168273ffffffffffffffffffffffffffffffffffffffff167fddf252ad1be2c89b69c2b068fc378daa952ba7f163c4a11628f55a4df523b3ef60405160405180910390a4611b7081600084611c50565b5050565b611b7e8383611ddc565b611b8b6000848484611c55565b611bca576040517f08c379a0000000000000000000000000000000000000000000000000000000008152600401611bc1906132ca565b60405180910390fd5b505050565b6000808273ffffffffffffffffffffffffffffffffffffffff163b119050919050565b600060019054906101000a900460ff16611c41576040517f08c379a0000000000000000000000000000000000000000000000000000000008152600401611c3890612f5d565b60405180910390fd5b600160c981905550565b505050565b505050565b6000611c768473ffffffffffffffffffffffffffffffffffffffff16611bcf565b15611dcf578373ffffffffffffffffffffffffffffffffffffffff1663150b7a02611c9f611313565b8786866040518563ffffffff1660e01b8152600401611cc19493929190613447565b6020604051808303816000875af1925050508015611cfd57506040513d601f19601f82011682018060405250810190611cfa91906134a8565b60015b611d7f573d8060008114611d2d576040519150601f19603f3d011682016040523d82523d6000602084013e611d32565b606091505b506000815103611d77576040517f08c379a0000000000000000000000000000000000000000000000000000000008152600401611d6e906132ca565b60405180910390fd5b805181602001fd5b63150b7a0260e01b7bffffffffffffffffffffffffffffffffffffffffffffffffffffffff1916817bffffffffffffffffffffffffffffffffffffffffffffffffffffffff191614915050611dd4565b600190505b949350505050565b600073ffffffffffffffffffffffffffffffffffffffff168273ffffffffffffffffffffffffffffffffffffffff1603611e4b576040517f08c379a0000000000000000000000000000000000000000000000000000000008152600401611e4290613521565b60405180910390fd5b611e54816112a7565b15611e94576040517f08c379a0000000000000000000000000000000000000000000000000000000008152600401611e8b9061358d565b60405180910390fd5b611ea060008383611c4b565b6001606860008473ffffffffffffffffffffffffffffffffffffffff1673ffffffffffffffffffffffffffffffffffffffff1681526020019081526020016000206000828254611ef09190613196565b92505081905550816067600083815260200190815260200160002060006101000a81548173ffffffffffffffffffffffffffffffffffffffff021916908373ffffffffffffffffffffffffffffffffffffffff160217905550808273ffffffffffffffffffffffffffffffffffffffff16600073ffffffffffffffffffffffffffffffffffffffff167fddf252ad1be2c89b69c2b068fc378daa952ba7f163c4a11628f55a4df523b3ef60405160405180910390a4611fb160008383611c50565b5050565b828054611fc1906127a0565b90600052602060002090601f016020900481019282611fe3576000855561202a565b82601f10611ffc57805160ff191683800117855561202a565b8280016001018555821561202a579182015b8281111561202957825182559160200191906001019061200e565b5b509050612037919061203b565b5090565b5b8082111561205457600081600090555060010161203c565b5090565b6000604051905090565b600080fd5b600080fd5b60007fffffffff0000000000000000000000000000000000000000000000000000000082169050919050565b6120a18161206c565b81146120ac57600080fd5b50565b6000813590506120be81612098565b92915050565b6000602082840312156120da576120d9612062565b5b60006120e8848285016120af565b91505092915050565b60008115159050919050565b612106816120f1565b82525050565b600060208201905061212160008301846120fd565b92915050565b600081519050919050565b600082825260208201905092915050565b60005b83811015612161578082015181840152602081019050612146565b83811115612170576000848401525b50505050565b6000601f19601f8301169050919050565b600061219282612127565b61219c8185612132565b93506121ac818560208601612143565b6121b581612176565b840191505092915050565b600060208201905081810360008301526121da8184612187565b905092915050565b600080fd5b600080fd5b7f4e487b7100000000000000000000000000000000000000000000000000000000600052604160045260246000fd5b61222482612176565b810181811067ffffffffffffffff82111715612243576122426121ec565b5b80604052505050565b6000612256612058565b9050612262828261221b565b919050565b600067ffffffffffffffff821115612282576122816121ec565b5b61228b82612176565b9050602081019050919050565b82818337600083830152505050565b60006122ba6122b584612267565b61224c565b9050828152602081018484840111156122d6576122d56121e7565b5b6122e1848285612298565b509392505050565b600082601f8301126122fe576122fd6121e2565b5b813561230e8482602086016122a7565b91505092915050565b600073ffffffffffffffffffffffffffffffffffffffff82169050919050565b600061234282612317565b9050919050565b61235281612337565b811461235d57600080fd5b50565b60008135905061236f81612349565b92915050565b60008060006060848603121561238e5761238d612062565b5b600084013567ffffffffffffffff8111156123ac576123ab612067565b5b6123b8868287016122e9565b935050602084013567ffffffffffffffff8111156123d9576123d8612067565b5b6123e5868287016122e9565b92505060406123f686828701612360565b9150509250925092565b6000819050919050565b61241381612400565b811461241e57600080fd5b50565b6000813590506124308161240a565b92915050565b60006020828403121561244c5761244b612062565b5b600061245a84828501612421565b91505092915050565b61246c81612337565b82525050565b60006020820190506124876000830184612463565b92915050565b600080604083850312156124a4576124a3612062565b5b60006124b285828601612360565b92505060206124c385828601612421565b9150509250929050565b600067ffffffffffffffff8211156124e8576124e76121ec565b5b6124f182612176565b9050602081019050919050565b600061251161250c846124cd565b61224c565b90508281526020810184848401111561252d5761252c6121e7565b5b612538848285612298565b509392505050565b600082601f830112612555576125546121e2565b5b81356125658482602086016124fe565b91505092915050565b6000806000806080858703121561258857612587612062565b5b600061259687828801612360565b94505060206125a787828801612360565b93505060406125b887828801612421565b925050606085013567ffffffffffffffff8111156125d9576125d8612067565b5b6125e587828801612540565b91505092959194509250565b6125fa8161206c565b82525050565b600060208201905061261560008301846125f1565b92915050565b60008060006060848603121561263457612633612062565b5b600061264286828701612360565b935050602061265386828701612360565b925050604061266486828701612421565b9150509250925092565b60006020828403121561268457612683612062565b5b600061269284828501612360565b91505092915050565b6126a481612400565b82525050565b60006020820190506126bf600083018461269b565b92915050565b6126ce816120f1565b81146126d957600080fd5b50565b6000813590506126eb816126c5565b92915050565b6000806040838503121561270857612707612062565b5b600061271685828601612360565b9250506020612727858286016126dc565b9150509250929050565b6000806040838503121561274857612747612062565b5b600061275685828601612360565b925050602061276785828601612360565b9150509250929050565b7f4e487b7100000000000000000000000000000000000000000000000000000000600052602260045260246000fd5b600060028204905060018216806127b857607f821691505b6020821081036127cb576127ca612771565b5b50919050565b6000819050919050565b600060ff82169050919050565b6000819050919050565b600061280d612808612803846127d1565b6127e8565b6127db565b9050919050565b61281d816127f2565b82525050565b60006020820190506128386000830184612814565b92915050565b7f4552433732313a20617070726f76656420717565727920666f72206e6f6e657860008201527f697374656e7420746f6b656e0000000000000000000000000000000000000000602082015250565b600061289a602c83612132565b91506128a58261283e565b604082019050919050565b600060208201905081810360008301526128c98161288d565b9050919050565b7f4552433732313a20617070726f76616c20746f2063757272656e74206f776e6560008201527f7200000000000000000000000000000000000000000000000000000000000000602082015250565b600061292c602183612132565b9150612937826128d0565b604082019050919050565b6000602082019050818103600083015261295b8161291f565b9050919050565b7f4552433732313a20617070726f76652063616c6c6572206973206e6f74206f7760008201527f6e6572206e6f7220617070726f76656420666f7220616c6c0000000000000000602082015250565b60006129be603883612132565b91506129c982612962565b604082019050919050565b600060208201905081810360008301526129ed816129b1565b9050919050565b7f4552433732313a207472616e736665722063616c6c6572206973206e6f74206f60008201527f776e6572206e6f7220617070726f766564000000000000000000000000000000602082015250565b6000612a50603183612132565b9150612a5b826129f4565b604082019050919050565b60006020820190508181036000830152612a7f81612a43565b9050919050565b7f4552433732313a206f776e657220717565727920666f72206e6f6e657869737460008201527f656e7420746f6b656e0000000000000000000000000000000000000000000000602082015250565b6000612ae2602983612132565b9150612aed82612a86565b604082019050919050565b60006020820190508181036000830152612b1181612ad5565b9050919050565b7f4552433732313a2062616c616e636520717565727920666f7220746865207a6560008201527f726f206164647265737300000000000000000000000000000000000000000000602082015250565b6000612b74602a83612132565b9150612b7f82612b18565b604082019050919050565b60006020820190508181036000830152612ba381612b67565b9050919050565b7f4552433732314d657461646174613a2055524920717565727920666f72206e6f60008201527f6e6578697374656e7420746f6b656e0000000000000000000000000000000000602082015250565b6000612c06602f83612132565b9150612c1182612baa565b604082019050919050565b60006020820190508181036000830152612c3581612bf9565b9050919050565b600081905092915050565b6000612c5282612127565b612c5c8185612c3c565b9350612c6c818560208601612143565b80840191505092915050565b6000612c848285612c47565b9150612c908284612c47565b91508190509392505050565b7f5265656e7472616e637947756172643a207265656e7472616e742063616c6c00600082015250565b6000612cd2601f83612132565b9150612cdd82612c9c565b602082019050919050565b60006020820190508181036000830152612d0181612cc5565b9050919050565b7f4e6f206f776e696e672057726170706564436572756c65616e4e465400000000600082015250565b6000612d3e601c83612132565b9150612d4982612d08565b602082019050919050565b60006020820190508181036000830152612d6d81612d31565b9050919050565b6000606082019050612d896000830186612463565b612d966020830185612463565b612da3604083018461269b565b949350505050565b600081519050612dba81612349565b92915050565b600060208284031215612dd657612dd5612062565b5b6000612de484828501612dab565b91505092915050565b7f4e6f206f776e696e6720436572756c65616e4e46540000000000000000000000600082015250565b6000612e23601583612132565b9150612e2e82612ded565b602082019050919050565b60006020820190508181036000830152612e5281612e16565b9050919050565b7f496e697469616c697a61626c653a20636f6e747261637420697320616c72656160008201527f647920696e697469616c697a6564000000000000000000000000000000000000602082015250565b6000612eb5602e83612132565b9150612ec082612e59565b604082019050919050565b60006020820190508181036000830152612ee481612ea8565b9050919050565b7f496e697469616c697a61626c653a20636f6e7472616374206973206e6f74206960008201527f6e697469616c697a696e67000000000000000000000000000000000000000000602082015250565b6000612f47602b83612132565b9150612f5282612eeb565b604082019050919050565b60006020820190508181036000830152612f7681612f3a565b9050919050565b7f4552433732313a206f70657261746f7220717565727920666f72206e6f6e657860008201527f697374656e7420746f6b656e0000000000000000000000000000000000000000602082015250565b6000612fd9602c83612132565b9150612fe482612f7d565b604082019050919050565b6000602082019050818103600083015261300881612fcc565b9050919050565b7f4552433732313a207472616e736665722066726f6d20696e636f72726563742060008201527f6f776e6572000000000000000000000000000000000000000000000000000000602082015250565b600061306b602583612132565b91506130768261300f565b604082019050919050565b6000602082019050818103600083015261309a8161305e565b9050919050565b7f4552433732313a207472616e7366657220746f20746865207a65726f2061646460008201527f7265737300000000000000000000000000000000000000000000000000000000602082015250565b60006130fd602483612132565b9150613108826130a1565b604082019050919050565b6000602082019050818103600083015261312c816130f0565b9050919050565b7f4e487b7100000000000000000000000000000000000000000000000000000000600052601160045260246000fd5b600061316d82612400565b915061317883612400565b92508282101561318b5761318a613133565b5b828203905092915050565b60006131a182612400565b91506131ac83612400565b9250827fffffffffffffffffffffffffffffffffffffffffffffffffffffffffffffffff038211156131e1576131e0613133565b5b828201905092915050565b7f4552433732313a20617070726f766520746f2063616c6c657200000000000000600082015250565b6000613222601983612132565b915061322d826131ec565b602082019050919050565b6000602082019050818103600083015261325181613215565b9050919050565b7f4552433732313a207472616e7366657220746f206e6f6e20455243373231526560008201527f63656976657220696d706c656d656e7465720000000000000000000000000000602082015250565b60006132b4603283612132565b91506132bf82613258565b604082019050919050565b600060208201905081810360008301526132e3816132a7565b9050919050565b60006132f582612400565b91507fffffffffffffffffffffffffffffffffffffffffffffffffffffffffffffffff820361332757613326613133565b5b600182019050919050565b7f4e487b7100000000000000000000000000000000000000000000000000000000600052601260045260246000fd5b600061336c82612400565b915061337783612400565b92508261338757613386613332565b5b828204905092915050565b600061339d82612400565b91506133a883612400565b9250826133b8576133b7613332565b5b828206905092915050565b7f4e487b7100000000000000000000000000000000000000000000000000000000600052603260045260246000fd5b600081519050919050565b600082825260208201905092915050565b6000613419826133f2565b61342381856133fd565b9350613433818560208601612143565b61343c81612176565b840191505092915050565b600060808201905061345c6000830187612463565b6134696020830186612463565b613476604083018561269b565b8181036060830152613488818461340e565b905095945050505050565b6000815190506134a281612098565b92915050565b6000602082840312156134be576134bd612062565b5b60006134cc84828501613493565b91505092915050565b7f4552433732313a206d696e7420746f20746865207a65726f2061646472657373600082015250565b600061350b602083612132565b9150613516826134d5565b602082019050919050565b6000602082019050818103600083015261353a816134fe565b9050919050565b7f4552433732313a20746f6b656e20616c7265616479206d696e74656400000000600082015250565b6000613577601c83612132565b915061358282613541565b602082019050919050565b600060208201905081810360008301526135a68161356a565b905091905056fea2646970667358221220b9258817e4015316ba58e0f733c968be76ba9ec5c53691c86647779c90fb160864736f6c634300080d0033",
  "devdoc": {
    "kind": "dev",
    "methods": {
      "approve(address,uint256)": {
        "details": "See {IERC721-approve}."
      },
      "balanceOf(address)": {
        "details": "See {IERC721-balanceOf}."
      },
      "getApproved(uint256)": {
        "details": "See {IERC721-getApproved}."
      },
      "isApprovedForAll(address,address)": {
        "details": "See {IERC721-isApprovedForAll}."
      },
      "name()": {
        "details": "See {IERC721Metadata-name}."
      },
      "onERC721Received(address,address,uint256,bytes)": {
        "details": "See {IERC721Receiver-onERC721Received}. Always returns `IERC721Receiver.onERC721Received.selector`."
      },
      "ownerOf(uint256)": {
        "details": "See {IERC721-ownerOf}."
      },
      "safeTransferFrom(address,address,uint256)": {
        "details": "See {IERC721-safeTransferFrom}."
      },
      "safeTransferFrom(address,address,uint256,bytes)": {
        "details": "See {IERC721-safeTransferFrom}."
      },
      "setApprovalForAll(address,bool)": {
        "details": "See {IERC721-setApprovalForAll}."
      },
      "supportsInterface(bytes4)": {
        "details": "See {IERC165-supportsInterface}."
      },
      "symbol()": {
        "details": "See {IERC721Metadata-symbol}."
      },
      "tokenURI(uint256)": {
        "details": "See {IERC721Metadata-tokenURI}."
      },
      "transferFrom(address,address,uint256)": {
        "details": "See {IERC721-transferFrom}."
      },
      "unwrap(uint256)": {
        "details": "msg.sender should be the WrappedCeruleanNFT owner or get approved by the WrappedCeruleanNFT ownerCeruleanNFT should be unlocked to the WrappedCeruleanNFT owner",
        "params": {
          "_tokenId": "WrappedCeruleanNFT tokenId to unwrap"
        }
      },
      "wrap(uint256)": {
        "details": "CeruleanNFT should be locked on the contractmsg.sender should be the CeruleanNFT owner or get approved by the CeruleanNFT ownerWrappedCeruleanNFT tokenId is the same as the CeruleanNFT one",
        "params": {
          "_tokenId": "CeruleanNFT tokenId to wrap"
        }
      }
    },
    "stateVariables": {
      "ceruleanNFT": {
        "details": "CeruleanNFT contract address"
      }
    },
    "version": 1
  },
  "userdoc": {
    "kind": "user",
    "methods": {
      "unwrap(uint256)": {
        "notice": "Unwrap CeruleanNFT"
      },
      "wrap(uint256)": {
        "notice": "Wrap CeruleanNFT"
      }
    },
    "version": 1
  },
  "storageLayout": {
    "storage": [
      {
        "astId": 9,
        "contract": "contracts/WrappedCeruleanNFT.sol:WrappedCeruleanNFT",
        "label": "_initialized",
        "offset": 0,
        "slot": "0",
        "type": "t_uint8"
      },
      {
        "astId": 12,
        "contract": "contracts/WrappedCeruleanNFT.sol:WrappedCeruleanNFT",
        "label": "_initializing",
        "offset": 1,
        "slot": "0",
        "type": "t_bool"
      },
      {
        "astId": 1586,
        "contract": "contracts/WrappedCeruleanNFT.sol:WrappedCeruleanNFT",
        "label": "__gap",
        "offset": 0,
        "slot": "1",
        "type": "t_array(t_uint256)50_storage"
      },
      {
        "astId": 1833,
        "contract": "contracts/WrappedCeruleanNFT.sol:WrappedCeruleanNFT",
        "label": "__gap",
        "offset": 0,
        "slot": "51",
        "type": "t_array(t_uint256)50_storage"
      },
      {
        "astId": 232,
        "contract": "contracts/WrappedCeruleanNFT.sol:WrappedCeruleanNFT",
        "label": "_name",
        "offset": 0,
        "slot": "101",
        "type": "t_string_storage"
      },
      {
        "astId": 234,
        "contract": "contracts/WrappedCeruleanNFT.sol:WrappedCeruleanNFT",
        "label": "_symbol",
        "offset": 0,
        "slot": "102",
        "type": "t_string_storage"
      },
      {
        "astId": 238,
        "contract": "contracts/WrappedCeruleanNFT.sol:WrappedCeruleanNFT",
        "label": "_owners",
        "offset": 0,
        "slot": "103",
        "type": "t_mapping(t_uint256,t_address)"
      },
      {
        "astId": 242,
        "contract": "contracts/WrappedCeruleanNFT.sol:WrappedCeruleanNFT",
        "label": "_balances",
        "offset": 0,
        "slot": "104",
        "type": "t_mapping(t_address,t_uint256)"
      },
      {
        "astId": 246,
        "contract": "contracts/WrappedCeruleanNFT.sol:WrappedCeruleanNFT",
        "label": "_tokenApprovals",
        "offset": 0,
        "slot": "105",
        "type": "t_mapping(t_uint256,t_address)"
      },
      {
        "astId": 252,
        "contract": "contracts/WrappedCeruleanNFT.sol:WrappedCeruleanNFT",
        "label": "_operatorApprovals",
        "offset": 0,
        "slot": "106",
        "type": "t_mapping(t_address,t_mapping(t_address,t_bool))"
      },
      {
        "astId": 1093,
        "contract": "contracts/WrappedCeruleanNFT.sol:WrappedCeruleanNFT",
        "label": "__gap",
        "offset": 0,
        "slot": "107",
        "type": "t_array(t_uint256)44_storage"
      },
      {
        "astId": 1301,
        "contract": "contracts/WrappedCeruleanNFT.sol:WrappedCeruleanNFT",
        "label": "__gap",
        "offset": 0,
        "slot": "151",
        "type": "t_array(t_uint256)50_storage"
      },
      {
        "astId": 158,
        "contract": "contracts/WrappedCeruleanNFT.sol:WrappedCeruleanNFT",
        "label": "_status",
        "offset": 0,
        "slot": "201",
        "type": "t_uint256"
      },
      {
        "astId": 202,
        "contract": "contracts/WrappedCeruleanNFT.sol:WrappedCeruleanNFT",
        "label": "__gap",
        "offset": 0,
        "slot": "202",
        "type": "t_array(t_uint256)49_storage"
      },
      {
        "astId": 1873,
        "contract": "contracts/WrappedCeruleanNFT.sol:WrappedCeruleanNFT",
        "label": "ceruleanNFT",
        "offset": 0,
        "slot": "251",
        "type": "t_address"
      }
    ],
    "types": {
      "t_address": {
        "encoding": "inplace",
        "label": "address",
        "numberOfBytes": "20"
      },
      "t_array(t_uint256)44_storage": {
        "base": "t_uint256",
        "encoding": "inplace",
        "label": "uint256[44]",
        "numberOfBytes": "1408"
      },
      "t_array(t_uint256)49_storage": {
        "base": "t_uint256",
        "encoding": "inplace",
        "label": "uint256[49]",
        "numberOfBytes": "1568"
      },
      "t_array(t_uint256)50_storage": {
        "base": "t_uint256",
        "encoding": "inplace",
        "label": "uint256[50]",
        "numberOfBytes": "1600"
      },
      "t_bool": {
        "encoding": "inplace",
        "label": "bool",
        "numberOfBytes": "1"
      },
      "t_mapping(t_address,t_bool)": {
        "encoding": "mapping",
        "key": "t_address",
        "label": "mapping(address => bool)",
        "numberOfBytes": "32",
        "value": "t_bool"
      },
      "t_mapping(t_address,t_mapping(t_address,t_bool))": {
        "encoding": "mapping",
        "key": "t_address",
        "label": "mapping(address => mapping(address => bool))",
        "numberOfBytes": "32",
        "value": "t_mapping(t_address,t_bool)"
      },
      "t_mapping(t_address,t_uint256)": {
        "encoding": "mapping",
        "key": "t_address",
        "label": "mapping(address => uint256)",
        "numberOfBytes": "32",
        "value": "t_uint256"
      },
      "t_mapping(t_uint256,t_address)": {
        "encoding": "mapping",
        "key": "t_uint256",
        "label": "mapping(uint256 => address)",
        "numberOfBytes": "32",
        "value": "t_address"
      },
      "t_string_storage": {
        "encoding": "bytes",
        "label": "string",
        "numberOfBytes": "32"
      },
      "t_uint256": {
        "encoding": "inplace",
        "label": "uint256",
        "numberOfBytes": "32"
      },
      "t_uint8": {
        "encoding": "inplace",
        "label": "uint8",
        "numberOfBytes": "1"
      }
    }
  }
}